S0240000464D30303720417474696E793130203278204C4544204452495645522E7372656331
S11300000AC011C010C00FC00EC00DC00CC00BC080
S11300100AC009C008C011271FBFCFE5D0E0DEBF6A
S1130020CDBF02D00BC2ECCFCF93DF9300D000D072
S113003000D0CDB7DEB748ED4CBF16BF43E041B9A1
S113004044E043B943EA4EBD42E04DBD17BD16BD81
S113005015BD14BD44EF51E0CA5FDF4F58834A9386
S1130060C550D04030E021E00299FECF6FE57AEE32
S113007061507040E9F700C000007FEF84E39CE02A
S1130080715080409040E1F700C000000299DEC04A
S11300904FE15EE441505040E9F700C0000040B138
S11300A002993CC03323E9F1211399C0CB5FDF4FA0
S11300B049915881C650D0404117510789F34150A6
S11300C0510BCA5FDF4F58834A93C550D04060E05C
S11300D070E01F931F935F934F93972F862F752F75
S11300E0642F84D10F910F910F910F91462F572FA9
S11300F0682F792FFAE07695679557954795FA9585
S1130100D1F7411784E058076107710709F49BC0D0
S113011057BD46BD55BD44BD029BC4CF51E0252704
S1130120A3CFCF5FDF4F1993199319931883C4504A
S1130130D040CC5FDF4F9881C450D0409F93CD5FB7
S1130140DF4F4881C350D0404F93CE5FDF4F58817B
S1130150C250D0405F93CF5FDF4F6881C150D04021
S11301606F93CF5FDF4F6991799189919881C450E2
S1130170D0403CD10F910F910F910F91462F572FE3
S1130180682F792FEAE07695679557954795EA9514
S1130190D1F757BD46BD55BD44BD8FE19EE48150A6
S11301A09040E9F700C00000CF5FDF4F49915991BB
S11301B069917881C450D0404F5F5F4F6F4F7F4F3C
S11301C0CF5FDF4F4993599369937883C450D040EC
S11301D04B3451076107710709F0ABCF61CFCB5F97
S11301E0DF4F69917881C650D0406F3F83E0780734
S11301F008F056CF6F5F7F4FCA5FDF4F78836A93F3
S1130200C550D040462F572F60E070E01F931F93D6
S11302105F934F93972F862F752F642FE7D00F91FD
S11302200F910F910F91462F572F682F792FAAE026
S11302307695679557954795AA95D1F757BD46BDCD
S113024055BD44BD2DCF4FEF53E062CF311377C07E
S1130250CB5FDF4F69917881C650D040672B09F49A
S11302606BC0CF5FDF4F1993199319931883C45050
S1130270D04028C057BD46BD55BD44BD4FE15EE4E6
S113028041505040E9F700C00000CF5FDF4F699153
S1130290799189919881C450D0406F5F7F4F8F4F7F
S11302A09F4FCF5FDF4F6993799389939883C450AD
S11302B0D040CB5FDF4F89919881C650D0406817FA
S11302C07907D0F5CC5FDF4F7881C450D0407F935D
S11302D0CD5FDF4F8881C350D0408F93CE5FDF4F17
S11302E09881C250D0409F93CF5FDF4F4881C15067
S11302F0D0404F93CF5FDF4F699179918991988175
S1130300C450D04073D00F910F910F910F91462F8D
S1130310572F682F792F8AE07695679557954795DB
S11303208A95D1F7411784E058076107710709F0EE
S1130330A1CF4FEF53E09ECF71E0372795CECB5F2F
S1130340DF4F89919881C650D04081179107A1F35E
S1130350CE5FDF4F98838A93C150D0401BC057BDF6
S113036046BD55BD44BD4FE15EE441505040E9F700
S113037000C00000CF5FDF4F69917881C250D04048
S11303806150710BCE5FDF4F78836A93C150D040C8
S1130390672B91F2CF5FDF4F89919881C250D04093
S11303A0482F592F60E070E01F931F935F938F9342
S11303B0972F862F752F642F19D00F910F910F91BE
S11303C00F91462F572F682F792F9AE076956795CE
S11303D0579547959A95D1F7411794E059076107C6
S11303E0710709F0BCCF4FEF53E0B9CFADB7BEB73B
S11303F0AD5FBF4F2F933F932D913D914D915C91F4
S1130400EE27FF27AA27BB2708C0A20FB31FE41FAC
S1130410F51F220F331F441F551F96958795779517
S1130420679598F37040A9F78050904091F76A2F30
S11304307B2F8E2F9F2F3F912F910895F894FFCFFC
S9030000FC
