:100000000AC024C023C022C021C020C01FC01EC0FF
:100010001DC01CC01BC011271FBFCFE5D0E0DEBF35
:10002000CDBF20E0A0E4B0E0E2E9F3E402C031910A
:100030003D93A634B207D9F720E0A6E4B0E001C0B2
:100040001D93A834B207E1F71BD1A1C1D9CFCF933B
:10005000DF9300D000D0CDB7DEB742A153A160E05E
:1000600070E01F931F935F934F93972F862F752FE9
:10007000642F65D10F910F910F910F91462F572F3C
:10008000682F792FB72FA62F952F842FEEE0B695E6
:10009000A79597958795EA95D1F7CF5FDF4F89931D
:1000A0009993A993B883C450D04081179044A10775
:1000B000B10760F06FEF7FE380E090E0CF5FDF4F4C
:1000C0006993799389939883C450D04040A151A1FA
:1000D00060E070E0CC5FDF4F8881C450D0408F93E8
:1000E000CD5FDF4F9881C350D0409F93CE5FDF4FED
:1000F000A881C250D040AF93CF5FDF4FB881C150CD
:10010000D040BF93972F862F752F642F18D10F9152
:100110000F910F910F91462F572F682F792F8AE05B
:1001200076956795579547958A95D1F757BD46BD02
:1001300046B557B5CF5FDF4F69917881641B750B6A
:1001400075BD64BD0F910F910F910F91DF91CF910C
:100150000895CF93DF93C2A1D3A147A14423C9F04F
:1001600042A153A1452B61F072DF42E04A95F1F7BD
:1001700000C042A153A14150510B53A942A9F0CF55
:10018000D3A9C2A957A141E0452747A9DF91CF9143
:10019000089513A912A942A153A14C175D0780F736
:1001A00056DF42E04A95F1F700C042A153A14F5FEC
:1001B0005F4F53A942A9EFCF47A1411316C013A91E
:1001C00012A942A153A14636564060F440DF45E8EB
:1001D0004A95F1F7000042A153A14F5F5F4F53A929
:1001E00042A9EFCF41E047A946A966A142A153A188
:1001F000662339F04F3F6FE3560760F44F5F5F4F60
:1002000006C0473666E0560728F04150510B53A907
:1002100042A91DDF42A153A14F3F6FE3560719F0DA
:100220004636564011F4029BFECF45E84A95F1F759
:100230000000089547A14423A1F064A140A151A169
:10024000662339F0411764E0560758F44F5F5F4F5B
:1002500005C04117510729F04150510B51A940A940
:10026000F6DE40A151A15B7F452B11F4029BFECF2E
:100270004FE95FE041505040E9F700C000000895A9
:1002800048ED4CBF16BF43E041B944E043B942EAF0
:100290004EBD49E14DBD40E050E453BD42BD029921
:1002A000FECF4FE55AEE41505040E9F700C0000044
:1002B0000299F5CF47A1442311F040E019C05FEF48
:1002C00062E577E0515060407040E1F700C0000007
:1002D000029917C002991BC06FDFFCCF4A3099F01A
:1002E0004F5F6FE473EC61507040E9F700C00000AD
:1002F000029BF4CF4A3039F04BE002990DC0029BCB
:1003000015C027DFCCCF029902C056DFFCCF56A123
:1003100041E0452746A9C3CF415089F36FE473EC10
:1003200061507040E9F700C00000E7CF029902C0B9
:1003300081DFFCCF54A141E0452744A9B0CFADB740
:10034000BEB7AD5FBF4F2F933F932D913D914D9120
:100350005C91EE27FF27AA27BB2708C0A20FB31F77
:10036000E41FF51F220F331F441F551F96958795D5
:100370007795679598F37040A9F78050904091F772
:100380006A2F7B2F8E2F9F2F3F912F910895F894E6
:02039000FFCF9D
:060392000002FF1F010044
:00000001FF
